:0300000002077282
:0C077200787FE4F6D8FD7581370207B9E6
:060B7C00013700012E000C
:100AC500E4FFC290C293D2910000D2930000C2937A
:100AD500D2910000D2930000C293C2910000D2933C
:100AE5000000C293D2910000FEEF25E0FFD29300F3
:100AF50000309203430701C29300000EBE08EAD2FC
:010B0500905F
:010B060022CC
:1009F700E4FBFA120AC5E52E7012752E01FD742F5D
:100A07002DF8A6070DBD08F6E4F53722742F253714
:100A1700F8A607E537045407F537E4FD742F2DF8DA
:100A2700E62BFBE43AFA0DBD08F2AE02EB7803CEF3
:070A3700C313CE13D8F9FF31
:010A3E002295
:0A0D70003F065B4F666D7D077F6F45
:100B820001210001230001260001200101220001B0
:100B92002800012700012500012400042A0000008A
:0D0BA20000012900011D01011E01011F01BC
:100CB500D3EF9400EE940040147D787C00ED1D7018
:0D0CC500011CED4C70F7EF1F70E61E80E380
:010CD20022FF
:100CD300E4FEC282EF30E703D38001C39280EF25A5
:0C0CE300E0FFD2820EBE08EAC281D2817E
:010CEF0022E2
:100B0700EF75F06484FEEF75F06484E5F075F00A24
:100B170084FDEF75F00A84AFF0EED394004004AC87
:100B27000680027C0A8C2AEED394005005ED9400CF
:0F0B37004004AE0580027E0A8E2B8F2C85232D65
:010B4600228C
:100A3F00C2A4C2A5C2A6C2A7742A2524F8E6FDB493
:100A4F000A03E48005ED900D7093FF120CD3E5249B
:100A5F0014600E14600F1460102403700ED2A48063
:100A6F000AD2A58006D2A68002D2A7E52404540399
:030A7F00F5242239
:100D0C00C2A0C2A1C2A2EF24FE600A14600A24028F
:0B0D1C007008D2A022D2A122D2A22295
:1008EC00A2B5E433F9A2B6E433FBA2B7E433FA7F42
:1008FC000A7E00120CB5E97013E51DB4010EE5205B
:10090C00700A752201D2B2C2B3752632EB700DE5B6
:10091C001EB40108E5207004F522F526EA701AE5EC
:10092C001FB40115E52070047F0180027F008F2029
:0F093C00E5206005E4F522F526891D8B1E8A1F34
:01094B002289
:100B4700EFD394C84004E4FE8016EFD39496400494
:100B57007E01800CEFD3946440047E0280027E0302
:100B6700EEB52302800B0528E528C3940540058EC2
:040B770023E4F52856
:010B7B002257
:100C3E00E52314600C14600D14600E2403E4FF8091
:100C4E000A7F1E80067F3C80027F5AE526C39F5096
:0C0C5E0003052622E526D39F4002152640
:010C6A002267
:03000B00020BE005
:100BE000C0E0C0D0758CFC758A660525E525C394E8
:100BF000644003752500E5267004C2B4800CE52529
:0F0C0000C3952650028001C392B4D0D0D0E03209
:03001B00020C0FC5
:100C0F00C0E0C083C082C0D075D000C000C005C096
:100C1F0006C007758DF0758B9C120A3F0529D0070A
:0F0C2F00D006D005D000D0D0D082D083D0E03214
:1007FE00E4F5807590FFF5A075B0FFD2B2C2B3C21A
:10080E00B4C2A0C2A1C2A2758911758CFC758A668C
:10081E00D2A9D28C758DF0758B9CD2ABD28ED2AF05
:10082E00120D60120BB07FD07E07120CB5120D2781
:10083E00E4FF120B071209F78F21120B07AF2112DB
:10084E000B47AF23120D0CE5206003120C3E12086D
:10085E00ECE529C3947D400FE4F52985200BAB26EA
:10086E00AD23AF211206CD7FC87E00120CB580C518
:10001E004144433A202020004C763A004E6F6E65E4
:10002E002020202020004C696768742020202000AA
:10003E004D696420202020202000486561767920BB
:10004E00202020002D2D2D20202020202000505754
:10005E004D3A002520202020202020004D6F646581
:10006E003A4155544F202020004D6F64653A4D4162
:10007E004E55414C20005261696E57697065722071
:10008E0056342E300057757969752020556E697675
:10009E002E2020003232303731302033323232309F
:1000AE003034393530004C69616E6720204A696101
:1000BE006F4875690000000000000000000000009D
:1000CE000000000000000000F8000000000000002A
:1000DE00330000000000100C06100C06000000009B
:1000EE00000000000040C07840C0784000043F048B
:1000FE00043F040400007088FC0830000000182043
:10010E00FF211E0000F008F000E018000000211C86
:10011E00031E211E0000F00888700000001E21231F
:10012E00241927211010160E0000000000000000F8
:10013E000000000000000000E018040200000000B3
:10014E00071820400000020418E0000000004020C4
:10015E001807000000404080F0804040000202017D
:10016E000F01020200000000F0000000000101017A
:10017E001F01010100000000000000000080B070AF
:10018E00000000000000000000000000000001015F
:10019E0001010101010000000000000000003030EC
:1001AE0000000000000000000080601804601806C7
:1001BE00010000000000E010080810E000000F1021
:1001CE002020100F00001010F8000000000020206A
:1001DE003F202000000070080808887000003028BA
:1001EE002422213000003008888848300000182072
:1001FE002020110E000000C02010F800000007049F
:10020E0024243F240000F8088888080800001921DB
:10021E002020110E0000E0108888180000000F1139
:10022E002020110E0000180808C838080000000031
:10023E003F000000000070880808887000001C2233
:10024E002121221C000070880808887000000021FF
:10025E0021110E0000000000C0C0000000000000D0
:10026E003030000000000000800000000000008020
:10027E006000000000000080402010080000010215
:10028E000408102000404040404040400004040458
:10029E000404040400000810204080000000201018
:1002AE000804020100007048080808F00000000071
:1002BE003036010000C030C828E810E000071827CB
:1002CE002423140B000000C038E0000000203C2363
:1002DE00020227382008F8888888700000203F2006
:1002EE002020110E00C0300808080838000718201A
:1002FE00202010080008F808080810E000203F2011
:10030E002020100F0008F88888E8081000203F20F1
:10031E00202320180008F88888E8081000203F20C5
:10032E000003000000C0300808083800000718203D
:10033E0020221E020008F808000008F808203F21BD
:10034E000101213F20000808F808080000002020C5
:10035E003F2020000000000808F8080800C0808038
:10036E00807F00000008F888C028180800203F2071
:10037E00012638200008F8080000000000203F2069
:10038E00202020300008F830C030F80800203F2030
:10039E0000203F200008F810608008F808203F2059
:1003AE000001273E20E01008080810E0000F102082
:1003BE002020100F0008F808080808F000203F2140
:1003CE000101010000E01008080810E0000F1824D9
:1003DE002438504F0008F8888888887000203F2005
:1003EE0000030C3020007088080808380000382000
:1003FE002121221C00180808F80808180000002007
:10040E003F2000000008F808000008F808001F2030
:10041E002020201F000878880000C8380800000738
:10042E00380E010000F80800F80008F800033C0739
:10043E0000073C0300081868808068180820302CDC
:10044E0003032C30200838C800C8380800000020EC
:10045E003F2000000010080808C838080020282493
:10046E002221300000000000FE0202020000000007
:10047E007F40404000000418608000000000000033
:10048E00010618600000020202FE0000000040405B
:10049E00407F000000000004020202040000000081
:1004AE0000000000000000000000000000808080BE
:1004BE0080808080800002020400000000000000A6
:1004CE0000000000000000808080800000001924E1
:1004DE002222223F2008F8008080000000003F11F9
:1004EE002020110E000000008080800000000E1100
:1004FE002020201100000000808088F800000E11DE
:10050E002020103F200000808080800000001F22ED
:10051E002222221300008080E08080000000202034
:10052E003F202000000000808080808000006B94BF
:10053E00949493600008F8008080800000203F2192
:10054E000000203F2000809898000000000020202E
:10055E003F20200000000000809898000000C0801E
:10056E0080807F000008F8000080808000203F24FB
:10057E00022D302000000808F800000000002020A6
:10058E003F202000008080808080808000203F20DF
:10059E00003F20003F8080008080800000203F21AF
:1005AE000000203F200000808080800000001F207F
:1005BE002020201F00808000808000000080FFA18E
:1005CE002020110E000000808000808000000E119F
:1005DE0020A0FF8000808080008080800020203F4F
:1005EE0021200001000000808080808000003324E4
:1005FE002424241900008080E08080000000000088
:10060E001F202000008080000000808000001F203E
:10061E002020103F20808080008080800000010E0E
:10062E00300806010080800080008080800F300C32
:10063E00030C300F0000808000008080000020310D
:10064E002E0E312000808080000080808000818E00
:10065E0070180601000080808080808000002130AC
:10066E002C2221300000000000807C0202000000DD
:10067E001039060000000000FF000000000000001E
:10068E00FF000000000002027C8000000000000657
:10069E0039100000000006010102020404000000EF
:1006AE000000000000AE00104081FFA1A6A83FC8C8
:0F06BE00D300D580D9F1DA12DB4020028D14AFC2
:070D4000D297120D47D29675
:090D470000000000000000002281
:0D000E00120D40C297120D47C296020D4719
:0A0D7A00C297120D42D297020D47F6
:070C6B00AD0712000E7F78B7
:100C7200E4FEEF30E703D38001C39297EF25E0FF54
:100C8200120D42C296120D470EBE08E6120D40C268
:040C920096020D4772
:100D5000120C6BE4FF120C72AF05120C72020D7ACA
:0F0C9600F583E5822CF582E43583F583E493FF43
:100CA500120C6B7F40120C72AF05120C72020D7A9A
:100CF000AC07ED540744B0FF120D50EC540FFF1237
:0C0D00000D50ECC4540F4410FF020D50C5
:0F0D6000E4FCEC9006B393FF120D500CBC1AF399
:010D6F002261
:100D2700E4FBAD03E4FF120CF0E4FCE4FF120CA5B6
:080D37000CBC80F70BBB08EABD
:010D3F002291
:04094C00AA07A90548
:10095000C3EB648094A04008D3EB648094FE400213
:100960007B20EB24E0FBAF02AD01120CF0E4FC7540
:10097000F010EBA424C3F582E5F03400120C960CC1
:10098000BC08ECAF02E904FD120CF0E4FC75F010B9
:10099000EBA424CBF582E5F03400120C960CBC08D5
:0109A000EC6A
:0109A1002233
:060A82007BFF7D02E4FF92
:100A88008F188D198B1A8A1B891CAB1AAA1BA91CD3
:100A980012087EFB6026AD19AF1812094C740825A0
:100AA80018F518C394804007E4F51805190519745A
:0D0AB80001251CF51CE4351BF51B80CE222A
:0809A2008F0C8D0D8A0E8B0FE6
:1009AA00E4F517E517C395105030AE0EAF0F7C0073
:1009BA007D0A120897ED2430FFE517FDE510C39D67
:1009CA00FD74102DF8A607AE0EAF0F7C007D0A123B
:1009DA0008978E0E8F0F051780C974112510F8E439
:0D09EA00F6FB7A007911AD0DAF0C020A8802
:1006CD008F088D098B0A7BFF7A00791EE4FDFF12DE
:1006DD000A88E508FB7A00751003E4FD7F201209F6
:1006ED00A27A007926120A82E509146012146017A5
:1006FD0014601C240370207BFF7A00792A801E7BF6
:10070D00FF7A00793480167BFF7A00793E800E7B6C
:10071D00FF7A00794880067BFF7A0079527D027F4F
:10072D0018120A887BFF7A00795C7D04E4FF120AB7
:10073D0088E50AFB7A007510027D047F201209A25C
:10074D007BFF7A0079617D047F30120A88E50B7B8F
:10075D00FF60067A00796A80047A0079777D06E475
:05076D00FF120A8822C2
:100BB000120D277BFF7A007984E4FDFF120A887A00
:100BC000007993120A827BFF7A0079A27D04E4FF08
:100BD000120A887BFF7A0079B47D06E4FF020A8856
:10077E000207FEE493A3F8E493A34003F68001F28C
:10078E0008DFF48029E493A3F85407240CC8C3337C
:10079E00C4540F4420C8834004F456800146F6DF4B
:1007AE00E4800B0102040810204080900B7CE47E54
:1007BE00019360BCA3FF543F30E509541FFEE49340
:1007CE00A360010ECF54C025E060A840B8E493A307
:1007DE00FAE493A3F8E493A3C8C582C8CAC583CA32
:1007EE00F0A3C8C582C8CAC583CADFE9DEE780BEEA
:010BAF000045
:10087E00BB010689828A83E0225002E722BBFE0278
:09088E00E32289828A83E49322AB
:10089700BC000BBE0029EF8DF084FFADF022E4CC45
:1008A700F875F008EF2FFFEE33FEEC33FCEE9DEC0E
:1008B700984005FCEE9DFE0FD5F0E9E4CEFD22ED54
:1008C700F8F5F0EE8420D21CFEADF075F008EF2F9E
:1008D700FFED33FD4007985006D5F0F222C398FD8F
:0508E7000FD5F0EA222C
:00000001FF
